{
  "_format": "hh-sol-artifact-1",
  "contractName": "Leverage",
  "sourceName": "contracts/Leverage.sol",
  "abi": [
    {
      "inputs": [
        {
          "internalType": "uint256",
          "name": "_entranceFee",
          "type": "uint256"
        },
        {
          "internalType": "uint8",
          "name": "_promotionShare",
          "type": "uint8"
        }
      ],
      "stateMutability": "nonpayable",
      "type": "constructor"
    },
    {
      "inputs": [
        {
          "internalType": "address",
          "name": "owner",
          "type": "address"
        }
      ],
      "name": "OwnableInvalidOwner",
      "type": "error"
    },
    {
      "inputs": [
        {
          "internalType": "address",
          "name": "account",
          "type": "address"
        }
      ],
      "name": "OwnableUnauthorizedAccount",
      "type": "error"
    },
    {
      "anonymous": false,
      "inputs": [
        {
          "indexed": true,
          "internalType": "address",
          "name": "previousOwner",
          "type": "address"
        },
        {
          "indexed": true,
          "internalType": "address",
          "name": "newOwner",
          "type": "address"
        }
      ],
      "name": "OwnershipTransferred",
      "type": "event"
    },
    {
      "inputs": [
        {
          "internalType": "uint32",
          "name": "",
          "type": "uint32"
        },
        {
          "internalType": "uint256",
          "name": "",
          "type": "uint256"
        }
      ],
      "name": "bracket",
      "outputs": [
        {
          "internalType": "uint32",
          "name": "",
          "type": "uint32"
        }
      ],
      "stateMutability": "view",
      "type": "function"
    },
    {
      "inputs": [],
      "name": "champion",
      "outputs": [
        {
          "internalType": "uint32",
          "name": "",
          "type": "uint32"
        }
      ],
      "stateMutability": "view",
      "type": "function"
    },
    {
      "inputs": [],
      "name": "competitorId",
      "outputs": [
        {
          "internalType": "uint32",
          "name": "",
          "type": "uint32"
        }
      ],
      "stateMutability": "view",
      "type": "function"
    },
    {
      "inputs": [
        {
          "internalType": "uint32",
          "name": "",
          "type": "uint32"
        }
      ],
      "name": "competitors",
      "outputs": [
        {
          "internalType": "uint32",
          "name": "id",
          "type": "uint32"
        },
        {
          "internalType": "address",
          "name": "addr",
          "type": "address"
        },
        {
          "internalType": "string",
          "name": "name",
          "type": "string"
        },
        {
          "internalType": "string",
          "name": "lastName",
          "type": "string"
        },
        {
          "internalType": "uint256",
          "name": "wins",
          "type": "uint256"
        },
        {
          "internalType": "uint256",
          "name": "losses",
          "type": "uint256"
        }
      ],
      "stateMutability": "view",
      "type": "function"
    },
    {
      "inputs": [
        {
          "internalType": "uint8",
          "name": "_round",
          "type": "uint8"
        }
      ],
      "name": "createMatches",
      "outputs": [],
      "stateMutability": "nonpayable",
      "type": "function"
    },
    {
      "inputs": [],
      "name": "entranceFee",
      "outputs": [
        {
          "internalType": "uint256",
          "name": "",
          "type": "uint256"
        }
      ],
      "stateMutability": "view",
      "type": "function"
    },
    {
      "inputs": [
        {
          "internalType": "uint8",
          "name": "_round",
          "type": "uint8"
        }
      ],
      "name": "getBracket",
      "outputs": [
        {
          "internalType": "uint32[]",
          "name": "",
          "type": "uint32[]"
        }
      ],
      "stateMutability": "view",
      "type": "function"
    },
    {
      "inputs": [
        {
          "internalType": "uint32",
          "name": "_competitorId",
          "type": "uint32"
        }
      ],
      "name": "getCompetitor",
      "outputs": [
        {
          "components": [
            {
              "internalType": "uint32",
              "name": "id",
              "type": "uint32"
            },
            {
              "internalType": "address",
              "name": "addr",
              "type": "address"
            },
            {
              "internalType": "string",
              "name": "name",
              "type": "string"
            },
            {
              "internalType": "string",
              "name": "lastName",
              "type": "string"
            },
            {
              "internalType": "uint256",
              "name": "wins",
              "type": "uint256"
            },
            {
              "internalType": "uint256",
              "name": "losses",
              "type": "uint256"
            }
          ],
          "internalType": "struct Leverage.Competitor",
          "name": "",
          "type": "tuple"
        }
      ],
      "stateMutability": "view",
      "type": "function"
    },
    {
      "inputs": [
        {
          "internalType": "uint32",
          "name": "_matchId",
          "type": "uint32"
        }
      ],
      "name": "getMatch",
      "outputs": [
        {
          "components": [
            {
              "internalType": "uint256",
              "name": "id",
              "type": "uint256"
            },
            {
              "internalType": "uint32",
              "name": "competitor1",
              "type": "uint32"
            },
            {
              "internalType": "uint32",
              "name": "competitor2",
              "type": "uint32"
            },
            {
              "internalType": "uint256",
              "name": "winner",
              "type": "uint256"
            }
          ],
          "internalType": "struct Leverage.Match",
          "name": "",
          "type": "tuple"
        }
      ],
      "stateMutability": "view",
      "type": "function"
    },
    {
      "inputs": [],
      "name": "getMatches",
      "outputs": [
        {
          "internalType": "uint256",
          "name": "",
          "type": "uint256"
        }
      ],
      "stateMutability": "view",
      "type": "function"
    },
    {
      "inputs": [],
      "name": "matchId",
      "outputs": [
        {
          "internalType": "uint32",
          "name": "",
          "type": "uint32"
        }
      ],
      "stateMutability": "view",
      "type": "function"
    },
    {
      "inputs": [
        {
          "internalType": "uint256",
          "name": "",
          "type": "uint256"
        }
      ],
      "name": "matches",
      "outputs": [
        {
          "internalType": "uint256",
          "name": "id",
          "type": "uint256"
        },
        {
          "internalType": "uint32",
          "name": "competitor1",
          "type": "uint32"
        },
        {
          "internalType": "uint32",
          "name": "competitor2",
          "type": "uint32"
        },
        {
          "internalType": "uint256",
          "name": "winner",
          "type": "uint256"
        }
      ],
      "stateMutability": "view",
      "type": "function"
    },
    {
      "inputs": [],
      "name": "owner",
      "outputs": [
        {
          "internalType": "address",
          "name": "",
          "type": "address"
        }
      ],
      "stateMutability": "view",
      "type": "function"
    },
    {
      "inputs": [],
      "name": "promotionShare",
      "outputs": [
        {
          "internalType": "uint8",
          "name": "",
          "type": "uint8"
        }
      ],
      "stateMutability": "view",
      "type": "function"
    },
    {
      "inputs": [
        {
          "internalType": "string",
          "name": "first",
          "type": "string"
        },
        {
          "internalType": "string",
          "name": "last",
          "type": "string"
        }
      ],
      "name": "register",
      "outputs": [],
      "stateMutability": "payable",
      "type": "function"
    },
    {
      "inputs": [],
      "name": "renounceOwnership",
      "outputs": [],
      "stateMutability": "nonpayable",
      "type": "function"
    },
    {
      "inputs": [
        {
          "internalType": "address",
          "name": "newOwner",
          "type": "address"
        }
      ],
      "name": "transferOwnership",
      "outputs": [],
      "stateMutability": "nonpayable",
      "type": "function"
    },
    {
      "inputs": [
        {
          "internalType": "uint32",
          "name": "_matchId",
          "type": "uint32"
        },
        {
          "internalType": "uint32",
          "name": "_competitorId",
          "type": "uint32"
        },
        {
          "internalType": "uint8",
          "name": "_round",
          "type": "uint8"
        }
      ],
      "name": "winner",
      "outputs": [],
      "stateMutability": "nonpayable",
      "type": "function"
    }
  ],
  "bytecode": "0x60806040523480156200001157600080fd5b5060405162002f3c38038062002f3c83398181016040528101906200003791906200022b565b33600073ffffffffffffffffffffffffffffffffffffffff168173ffffffffffffffffffffffffffffffffffffffff1603620000ad5760006040517f1e4fbdf7000000000000000000000000000000000000000000000000000000008152600401620000a49190620002b7565b60405180910390fd5b620000be81620000e960201b60201c565b508160018190555080600260006101000a81548160ff021916908360ff1602179055505050620002d4565b60008060009054906101000a900473ffffffffffffffffffffffffffffffffffffffff169050816000806101000a81548173ffffffffffffffffffffffffffffffffffffffff021916908373ffffffffffffffffffffffffffffffffffffffff1602179055508173ffffffffffffffffffffffffffffffffffffffff168173ffffffffffffffffffffffffffffffffffffffff167f8be0079c531659141344cd1fd0a4f28419497f9722a3daafe3b4186f6b6457e060405160405180910390a35050565b600080fd5b6000819050919050565b620001c781620001b2565b8114620001d357600080fd5b50565b600081519050620001e781620001bc565b92915050565b600060ff82169050919050565b6200020581620001ed565b81146200021157600080fd5b50565b6000815190506200022581620001fa565b92915050565b60008060408385031215620002455762000244620001ad565b5b60006200025585828601620001d6565b9250506020620002688582860162000214565b9150509250929050565b600073ffffffffffffffffffffffffffffffffffffffff82169050919050565b60006200029f8262000272565b9050919050565b620002b18162000292565b82525050565b6000602082019050620002ce6000830184620002a6565b92915050565b612c5880620002e46000396000f3fe6080604052600436106101095760003560e01c80634768d4ef11610095578063715018a611610064578063715018a61461039e5780638da5cb5b146103b55780639219d30a146103e057806399892e471461040b578063f2fde38b1461043657610109565b80634768d4ef146102cd57806352c7e72d1461030d5780635e5441c11461034a578063649677e11461037357610109565b806322772421116100dc57806322772421146101f35780632c70120e1461021e5780633ead8b67146102495780633ffbd47f1461028657806344866955146102a257610109565b80630a0622201461010e5780630a826349146101505780631809d9a41461018d5780631cd21fe4146101ca575b600080fd5b34801561011a57600080fd5b50610135600480360381019061013091906119f7565b61045f565b60405161014796959493929190611b1d565b60405180910390f35b34801561015c57600080fd5b50610177600480360381019061017291906119f7565b6105db565b6040516101849190611c93565b60405180910390f35b34801561019957600080fd5b506101b460048036038101906101af9190611cee565b61083b565b6040516101c19190611dca565b60405180910390f35b3480156101d657600080fd5b506101f160048036038101906101ec9190611cee565b6108db565b005b3480156101ff57600080fd5b50610208610bbd565b6040516102159190611dfb565b60405180910390f35b34801561022a57600080fd5b50610233610bd0565b6040516102409190611e16565b60405180910390f35b34801561025557600080fd5b50610270600480360381019061026b91906119f7565b610bdd565b60405161027d9190611e86565b60405180910390f35b6102a0600480360381019061029b9190611fd6565b610cfe565b005b3480156102ae57600080fd5b506102b7611018565b6040516102c4919061204e565b60405180910390f35b3480156102d957600080fd5b506102f460048036038101906102ef9190612095565b61102e565b60405161030494939291906120c2565b60405180910390f35b34801561031957600080fd5b50610334600480360381019061032f9190612107565b61108e565b604051610341919061204e565b60405180910390f35b34801561035657600080fd5b50610371600480360381019061036c9190612147565b6110d7565b005b34801561037f57600080fd5b50610388611529565b6040516103959190611e16565b60405180910390f35b3480156103aa57600080fd5b506103b361152f565b005b3480156103c157600080fd5b506103ca611543565b6040516103d7919061219a565b60405180910390f35b3480156103ec57600080fd5b506103f561156c565b604051610402919061204e565b60405180910390f35b34801561041757600080fd5b50610420611582565b60405161042d919061204e565b60405180910390f35b34801561044257600080fd5b5061045d600480360381019061045891906121e1565b611598565b005b60056020528060005260406000206000915090508060000160009054906101000a900463ffffffff16908060000160049054906101000a900473ffffffffffffffffffffffffffffffffffffffff16908060010180546104be9061223d565b80601f01602080910402602001604051908101604052809291908181526020018280546104ea9061223d565b80156105375780601f1061050c57610100808354040283529160200191610537565b820191906000526020600020905b81548152906001019060200180831161051a57829003601f168201915b50505050509080600201805461054c9061223d565b80601f01602080910402602001604051908101604052809291908181526020018280546105789061223d565b80156105c55780601f1061059a576101008083540402835291602001916105c5565b820191906000526020600020905b8154815290600101906020018083116105a857829003601f168201915b5050505050908060030154908060040154905086565b6105e3611921565b60008263ffffffff161180156106175750600260019054906101000a900463ffffffff1663ffffffff168263ffffffff1611155b610656576040517f08c379a000000000000000000000000000000000000000000000000000000000815260040161064d906122ba565b60405180910390fd5b600560008363ffffffff1663ffffffff1681526020019081526020016000206040518060c00160405290816000820160009054906101000a900463ffffffff1663ffffffff1663ffffffff1681526020016000820160049054906101000a900473ffffffffffffffffffffffffffffffffffffffff1673ffffffffffffffffffffffffffffffffffffffff1673ffffffffffffffffffffffffffffffffffffffff16815260200160018201805461070c9061223d565b80601f01602080910402602001604051908101604052809291908181526020018280546107389061223d565b80156107855780601f1061075a57610100808354040283529160200191610785565b820191906000526020600020905b81548152906001019060200180831161076857829003601f168201915b5050505050815260200160028201805461079e9061223d565b80601f01602080910402602001604051908101604052809291908181526020018280546107ca9061223d565b80156108175780601f106107ec57610100808354040283529160200191610817565b820191906000526020600020905b8154815290600101906020018083116107fa57829003601f168201915b50505050508152602001600382015481526020016004820154815250509050919050565b6060600460008360ff1663ffffffff1681526020019081526020016000208054806020026020016040519081016040528092919081815260200182805480156108cf57602002820191906000526020600020906000905b82829054906101000a900463ffffffff1663ffffffff16815260200190600401906020826003010492830192600103820291508084116108925790505b50505050509050919050565b6108e361161e565b60006002600460008460ff1663ffffffff168152602001908152602001600020805490506109119190612309565b14610951576040517f08c379a0000000000000000000000000000000000000000000000000000000008152600401610948906123ac565b60405180910390fd5b6000600460008360ff1663ffffffff16815260200190815260200160002080549050116109b3576040517f08c379a00000000000000000000000000000000000000000000000000000000081526004016109aa9061243e565b60405180910390fd5b60005b600460008360ff1663ffffffff16815260200190815260200160002080549050811015610bb9576002600581819054906101000a900463ffffffff16809291906109ff9061248d565b91906101000a81548163ffffffff021916908363ffffffff1602179055505060036040518060800160405280600260059054906101000a900463ffffffff1663ffffffff168152602001600460008660ff1663ffffffff1681526020019081526020016000208481548110610a7757610a766124b9565b5b90600052602060002090600891828204019190066004029054906101000a900463ffffffff1663ffffffff168152602001600460008660ff1663ffffffff168152602001908152602001600020600185610ad191906124e8565b81548110610ae257610ae16124b9565b5b90600052602060002090600891828204019190066004029054906101000a900463ffffffff1663ffffffff168152602001600081525090806001815401808255809150506001900390600052602060002090600302016000909190919091506000820151816000015560208201518160010160006101000a81548163ffffffff021916908363ffffffff16021790555060408201518160010160046101000a81548163ffffffff021916908363ffffffff160217905550606082015181600201555050600281610bb291906124e8565b90506109b6565b5050565b600260009054906101000a900460ff1681565b6000600380549050905090565b610be5611973565b60008263ffffffff16118015610c195750600260059054906101000a900463ffffffff1663ffffffff168263ffffffff1611155b610c58576040517f08c379a0000000000000000000000000000000000000000000000000000000008152600401610c4f90612568565b60405180910390fd5b6003600183610c679190612588565b63ffffffff1681548110610c7e57610c7d6124b9565b5b9060005260206000209060030201604051806080016040529081600082015481526020016001820160009054906101000a900463ffffffff1663ffffffff1663ffffffff1681526020016001820160049054906101000a900463ffffffff1663ffffffff1663ffffffff1681526020016002820154815250509050919050565b6001543414610d42576040517f08c379a0000000000000000000000000000000000000000000000000000000008152600401610d399061260c565b60405180910390fd5b6008600260019054906101000a900463ffffffff1663ffffffff1610610d9d576040517f08c379a0000000000000000000000000000000000000000000000000000000008152600401610d9490612678565b60405180910390fd5b6002600181819054906101000a900463ffffffff1680929190610dbf9061248d565b91906101000a81548163ffffffff021916908363ffffffff1602179055505060046000600163ffffffff168152602001908152602001600020600260019054906101000a900463ffffffff1690806001815401808255809150506001900390600052602060002090600891828204019190066004029091909190916101000a81548163ffffffff021916908363ffffffff1602179055506040518060c00160405280600260019054906101000a900463ffffffff1663ffffffff1681526020013373ffffffffffffffffffffffffffffffffffffffff16815260200183815260200182815260200160008152602001600081525060056000600260019054906101000a900463ffffffff1663ffffffff1663ffffffff16815260200190815260200160002060008201518160000160006101000a81548163ffffffff021916908363ffffffff16021790555060208201518160000160046101000a81548173ffffffffffffffffffffffffffffffffffffffff021916908373ffffffffffffffffffffffffffffffffffffffff1602179055506040820151816001019081610f679190612844565b506060820151816002019081610f7d9190612844565b506080820151816003015560a0820151816004015590505060006064600260009054906101000a900460ff1660ff16600154610fb99190612916565b610fc39190612958565b9050610fcd611543565b73ffffffffffffffffffffffffffffffffffffffff166108fc829081150290604051600060405180830381858888f19350505050158015611012573d6000803e3d6000fd5b50505050565b600260099054906101000a900463ffffffff1681565b6003818154811061103e57600080fd5b90600052602060002090600302016000915090508060000154908060010160009054906101000a900463ffffffff16908060010160049054906101000a900463ffffffff16908060020154905084565b600460205281600052604060002081815481106110aa57600080fd5b9060005260206000209060089182820401919006600402915091509054906101000a900463ffffffff1681565b6110df61161e565b60008363ffffffff1611801561110057506003805490508363ffffffff1611155b61113f576040517f08c379a000000000000000000000000000000000000000000000000000000000815260040161113690612568565b60405180910390fd5b8163ffffffff1660036001856111559190612588565b63ffffffff168154811061116c5761116b6124b9565b5b906000526020600020906003020160010160009054906101000a900463ffffffff1663ffffffff1614806111f257508163ffffffff1660036001856111b19190612588565b63ffffffff16815481106111c8576111c76124b9565b5b906000526020600020906003020160010160049054906101000a900463ffffffff1663ffffffff16145b611231576040517f08c379a0000000000000000000000000000000000000000000000000000000008152600401611228906129d5565b60405180910390fd5b8163ffffffff1660036001856112479190612588565b63ffffffff168154811061125e5761125d6124b9565b5b9060005260206000209060030201600201819055508163ffffffff1660036001856112899190612588565b63ffffffff16815481106112a05761129f6124b9565b5b906000526020600020906003020160010160009054906101000a900463ffffffff1663ffffffff160361138f57600560008363ffffffff1663ffffffff1681526020019081526020016000206003016000815480929190611300906129f5565b9190505550600060036001856113169190612588565b63ffffffff168154811061132d5761132c6124b9565b5b906000526020600020906003020160010160049054906101000a900463ffffffff169050600560008263ffffffff1663ffffffff1681526020019081526020016000206004016000815480929190611384906129f5565b919050555050611447565b600560008363ffffffff1663ffffffff16815260200190815260200160002060040160008154809291906113c2906129f5565b91905055506005600060036001866113da9190612588565b63ffffffff16815481106113f1576113f06124b9565b5b906000526020600020906003020160010160049054906101000a900463ffffffff1663ffffffff1663ffffffff1681526020019081526020016000206003016000815480929190611441906129f5565b91905055505b6002600460008360ff1663ffffffff16815260200190815260200160002080549050036114af5781600260096101000a81548163ffffffff021916908363ffffffff1602179055506114aa600260099054906101000a900463ffffffff166116a5565b611524565b600460006001836114c09190612a3d565b60ff1663ffffffff1681526020019081526020016000208290806001815401808255809150506001900390600052602060002090600891828204019190066004029091909190916101000a81548163ffffffff021916908363ffffffff1602179055505b505050565b60015481565b61153761161e565b6115416000611855565b565b60008060009054906101000a900473ffffffffffffffffffffffffffffffffffffffff16905090565b600260019054906101000a900463ffffffff1681565b600260059054906101000a900463ffffffff1681565b6115a061161e565b600073ffffffffffffffffffffffffffffffffffffffff168173ffffffffffffffffffffffffffffffffffffffff16036116125760006040517f1e4fbdf7000000000000000000000000000000000000000000000000000000008152600401611609919061219a565b60405180910390fd5b61161b81611855565b50565b611626611919565b73ffffffffffffffffffffffffffffffffffffffff16611644611543565b73ffffffffffffffffffffffffffffffffffffffff16146116a357611667611919565b6040517f118cdaa700000000000000000000000000000000000000000000000000000000815260040161169a919061219a565b60405180910390fd5b565b6000600560008363ffffffff1663ffffffff16815260200190815260200160002060000160049054906101000a900473ffffffffffffffffffffffffffffffffffffffff169050600073ffffffffffffffffffffffffffffffffffffffff168173ffffffffffffffffffffffffffffffffffffffff160361175b576040517f08c379a000000000000000000000000000000000000000000000000000000000815260040161175290612abe565b60405180910390fd5b6000479050804710156117a3576040517f08c379a000000000000000000000000000000000000000000000000000000000815260040161179a90612b50565b60405180910390fd5b60008273ffffffffffffffffffffffffffffffffffffffff16826040516117c990612ba1565b60006040518083038185875af1925050503d8060008114611806576040519150601f19603f3d011682016040523d82523d6000602084013e61180b565b606091505b505090508061184f576040517f08c379a000000000000000000000000000000000000000000000000000000000815260040161184690612c02565b60405180910390fd5b50505050565b60008060009054906101000a900473ffffffffffffffffffffffffffffffffffffffff169050816000806101000a81548173ffffffffffffffffffffffffffffffffffffffff021916908373ffffffffffffffffffffffffffffffffffffffff1602179055508173ffffffffffffffffffffffffffffffffffffffff168173ffffffffffffffffffffffffffffffffffffffff167f8be0079c531659141344cd1fd0a4f28419497f9722a3daafe3b4186f6b6457e060405160405180910390a35050565b600033905090565b6040518060c00160405280600063ffffffff168152602001600073ffffffffffffffffffffffffffffffffffffffff168152602001606081526020016060815260200160008152602001600081525090565b604051806080016040528060008152602001600063ffffffff168152602001600063ffffffff168152602001600081525090565b6000604051905090565b600080fd5b600080fd5b600063ffffffff82169050919050565b6119d4816119bb565b81146119df57600080fd5b50565b6000813590506119f1816119cb565b92915050565b600060208284031215611a0d57611a0c6119b1565b5b6000611a1b848285016119e2565b91505092915050565b611a2d816119bb565b82525050565b600073ffffffffffffffffffffffffffffffffffffffff82169050919050565b6000611a5e82611a33565b9050919050565b611a6e81611a53565b82525050565b600081519050919050565b600082825260208201905092915050565b60005b83811015611aae578082015181840152602081019050611a93565b60008484015250505050565b6000601f19601f8301169050919050565b6000611ad682611a74565b611ae08185611a7f565b9350611af0818560208601611a90565b611af981611aba565b840191505092915050565b6000819050919050565b611b1781611b04565b82525050565b600060c082019050611b326000830189611a24565b611b3f6020830188611a65565b8181036040830152611b518187611acb565b90508181036060830152611b658186611acb565b9050611b746080830185611b0e565b611b8160a0830184611b0e565b979650505050505050565b611b95816119bb565b82525050565b611ba481611a53565b82525050565b600082825260208201905092915050565b6000611bc682611a74565b611bd08185611baa565b9350611be0818560208601611a90565b611be981611aba565b840191505092915050565b611bfd81611b04565b82525050565b600060c083016000830151611c1b6000860182611b8c565b506020830151611c2e6020860182611b9b565b5060408301518482036040860152611c468282611bbb565b91505060608301518482036060860152611c608282611bbb565b9150506080830151611c756080860182611bf4565b5060a0830151611c8860a0860182611bf4565b508091505092915050565b60006020820190508181036000830152611cad8184611c03565b905092915050565b600060ff82169050919050565b611ccb81611cb5565b8114611cd657600080fd5b50565b600081359050611ce881611cc2565b92915050565b600060208284031215611d0457611d036119b1565b5b6000611d1284828501611cd9565b91505092915050565b600081519050919050565b600082825260208201905092915050565b6000819050602082019050919050565b6000611d538383611b8c565b60208301905092915050565b6000602082019050919050565b6000611d7782611d1b565b611d818185611d26565b9350611d8c83611d37565b8060005b83811015611dbd578151611da48882611d47565b9750611daf83611d5f565b925050600181019050611d90565b5085935050505092915050565b60006020820190508181036000830152611de48184611d6c565b905092915050565b611df581611cb5565b82525050565b6000602082019050611e106000830184611dec565b92915050565b6000602082019050611e2b6000830184611b0e565b92915050565b608082016000820151611e476000850182611bf4565b506020820151611e5a6020850182611b8c565b506040820151611e6d6040850182611b8c565b506060820151611e806060850182611bf4565b50505050565b6000608082019050611e9b6000830184611e31565b92915050565b600080fd5b600080fd5b7f4e487b7100000000000000000000000000000000000000000000000000000000600052604160045260246000fd5b611ee382611aba565b810181811067ffffffffffffffff82111715611f0257611f01611eab565b5b80604052505050565b6000611f156119a7565b9050611f218282611eda565b919050565b600067ffffffffffffffff821115611f4157611f40611eab565b5b611f4a82611aba565b9050602081019050919050565b82818337600083830152505050565b6000611f79611f7484611f26565b611f0b565b905082815260208101848484011115611f9557611f94611ea6565b5b611fa0848285611f57565b509392505050565b600082601f830112611fbd57611fbc611ea1565b5b8135611fcd848260208601611f66565b91505092915050565b60008060408385031215611fed57611fec6119b1565b5b600083013567ffffffffffffffff81111561200b5761200a6119b6565b5b61201785828601611fa8565b925050602083013567ffffffffffffffff811115612038576120376119b6565b5b61204485828601611fa8565b9150509250929050565b60006020820190506120636000830184611a24565b92915050565b61207281611b04565b811461207d57600080fd5b50565b60008135905061208f81612069565b92915050565b6000602082840312156120ab576120aa6119b1565b5b60006120b984828501612080565b91505092915050565b60006080820190506120d76000830187611b0e565b6120e46020830186611a24565b6120f16040830185611a24565b6120fe6060830184611b0e565b95945050505050565b6000806040838503121561211e5761211d6119b1565b5b600061212c858286016119e2565b925050602061213d85828601612080565b9150509250929050565b6000806000606084860312156121605761215f6119b1565b5b600061216e868287016119e2565b935050602061217f868287016119e2565b925050604061219086828701611cd9565b9150509250925092565b60006020820190506121af6000830184611a65565b92915050565b6121be81611a53565b81146121c957600080fd5b50565b6000813590506121db816121b5565b92915050565b6000602082840312156121f7576121f66119b1565b5b6000612205848285016121cc565b91505092915050565b7f4e487b7100000000000000000000000000000000000000000000000000000000600052602260045260246000fd5b6000600282049050600182168061225557607f821691505b6020821081036122685761226761220e565b5b50919050565b7f436f6d70657469746f72206e6f7420726567697374657265642e000000000000600082015250565b60006122a4601a83611a7f565b91506122af8261226e565b602082019050919050565b600060208201905081810360008301526122d381612297565b9050919050565b7f4e487b7100000000000000000000000000000000000000000000000000000000600052601260045260246000fd5b600061231482611b04565b915061231f83611b04565b92508261232f5761232e6122da565b5b828206905092915050565b7f5468657265206d75737420626520616e206576656e206e756d626572206f662060008201527f636f6d70657469746f727320696e2074686520726f756e642e00000000000000602082015250565b6000612396603983611a7f565b91506123a18261233a565b604082019050919050565b600060208201905081810360008301526123c581612389565b9050919050565b7f546865726520617265206e6f20636f6d70657469746f727320696e207468652060008201527f627261636b657400000000000000000000000000000000000000000000000000602082015250565b6000612428602783611a7f565b9150612433826123cc565b604082019050919050565b600060208201905081810360008301526124578161241b565b9050919050565b7f4e487b7100000000000000000000000000000000000000000000000000000000600052601160045260246000fd5b6000612498826119bb565b915063ffffffff82036124ae576124ad61245e565b5b600182019050919050565b7f4e487b7100000000000000000000000000000000000000000000000000000000600052603260045260246000fd5b60006124f382611b04565b91506124fe83611b04565b92508282019050808211156125165761251561245e565b5b92915050565b7f4d6174636820646f6573206e6f74206578697374000000000000000000000000600082015250565b6000612552601483611a7f565b915061255d8261251c565b602082019050919050565b6000602082019050818103600083015261258181612545565b9050919050565b6000612593826119bb565b915061259e836119bb565b9250828203905063ffffffff8111156125ba576125b961245e565b5b92915050565b7f496e636f727265637420656e7472616e63652066656500000000000000000000600082015250565b60006125f6601683611a7f565b9150612601826125c0565b602082019050919050565b60006020820190508181036000830152612625816125e9565b9050919050565b7f517561727465722046696e616c732069732066756c6c00000000000000000000600082015250565b6000612662601683611a7f565b915061266d8261262c565b602082019050919050565b6000602082019050818103600083015261269181612655565b9050919050565b60008190508160005260206000209050919050565b60006020601f8301049050919050565b600082821b905092915050565b6000600883026126fa7fffffffffffffffffffffffffffffffffffffffffffffffffffffffffffffffff826126bd565b61270486836126bd565b95508019841693508086168417925050509392505050565b6000819050919050565b600061274161273c61273784611b04565b61271c565b611b04565b9050919050565b6000819050919050565b61275b83612726565b61276f61276782612748565b8484546126ca565b825550505050565b600090565b612784612777565b61278f818484612752565b505050565b5b818110156127b3576127a860008261277c565b600181019050612795565b5050565b601f8211156127f8576127c981612698565b6127d2846126ad565b810160208510156127e1578190505b6127f56127ed856126ad565b830182612794565b50505b505050565b600082821c905092915050565b600061281b600019846008026127fd565b1980831691505092915050565b6000612834838361280a565b9150826002028217905092915050565b61284d82611a74565b67ffffffffffffffff81111561286657612865611eab565b5b612870825461223d565b61287b8282856127b7565b600060209050601f8311600181146128ae576000841561289c578287015190505b6128a68582612828565b86555061290e565b601f1984166128bc86612698565b60005b828110156128e4578489015182556001820191506020850194506020810190506128bf565b8683101561290157848901516128fd601f89168261280a565b8355505b6001600288020188555050505b505050505050565b600061292182611b04565b915061292c83611b04565b925082820261293a81611b04565b915082820484148315176129515761295061245e565b5b5092915050565b600061296382611b04565b915061296e83611b04565b92508261297e5761297d6122da565b5b828204905092915050565b7f436f6d70657469746f72206973206e6f7420696e2074686973206d6174636800600082015250565b60006129bf601f83611a7f565b91506129ca82612989565b602082019050919050565b600060208201905081810360008301526129ee816129b2565b9050919050565b6000612a0082611b04565b91507fffffffffffffffffffffffffffffffffffffffffffffffffffffffffffffffff8203612a3257612a3161245e565b5b600182019050919050565b6000612a4882611cb5565b9150612a5383611cb5565b9250828201905060ff811115612a6c57612a6b61245e565b5b92915050565b7f436f6d70657469746f722061646472657373206e6f7420666f756e6400000000600082015250565b6000612aa8601c83611a7f565b9150612ab382612a72565b602082019050919050565b60006020820190508181036000830152612ad781612a9b565b9050919050565b7f496e73756666696369656e742062616c616e636520746f20706179206368616d60008201527f70696f6e00000000000000000000000000000000000000000000000000000000602082015250565b6000612b3a602483611a7f565b9150612b4582612ade565b604082019050919050565b60006020820190508181036000830152612b6981612b2d565b9050919050565b600081905092915050565b50565b6000612b8b600083612b70565b9150612b9682612b7b565b600082019050919050565b6000612bac82612b7e565b9150819050919050565b7f4661696c656420746f2073656e64207072697a65000000000000000000000000600082015250565b6000612bec601483611a7f565b9150612bf782612bb6565b602082019050919050565b60006020820190508181036000830152612c1b81612bdf565b905091905056fea26469706673582212206244513bb4a4283b9ef79789642a234eb45f15b69d65ed394a04dbb175e673bf64736f6c63430008140033",
  "linkReferences": {},
  "deployedLinkReferences": {}
}